{
  "_format": "hh-sol-artifact-1",
  "contractName": "DiploNFT",
  "sourceName": "contracts/DiploNFT.sol",
  "abi": [
    {
      "inputs": [],
      "stateMutability": "nonpayable",
      "type": "constructor"
    },
    {
      "inputs": [],
      "name": "ERC721EnumerableForbiddenBatchMint",
      "type": "error"
    },
    {
      "inputs": [
        {
          "internalType": "address",
          "name": "sender",
          "type": "address"
        },
        {
          "internalType": "uint256",
          "name": "tokenId",
          "type": "uint256"
        },
        {
          "internalType": "address",
          "name": "owner",
          "type": "address"
        }
      ],
      "name": "ERC721IncorrectOwner",
      "type": "error"
    },
    {
      "inputs": [
        {
          "internalType": "address",
          "name": "operator",
          "type": "address"
        },
        {
          "internalType": "uint256",
          "name": "tokenId",
          "type": "uint256"
        }
      ],
      "name": "ERC721InsufficientApproval",
      "type": "error"
    },
    {
      "inputs": [
        {
          "internalType": "address",
          "name": "approver",
          "type": "address"
        }
      ],
      "name": "ERC721InvalidApprover",
      "type": "error"
    },
    {
      "inputs": [
        {
          "internalType": "address",
          "name": "operator",
          "type": "address"
        }
      ],
      "name": "ERC721InvalidOperator",
      "type": "error"
    },
    {
      "inputs": [
        {
          "internalType": "address",
          "name": "owner",
          "type": "address"
        }
      ],
      "name": "ERC721InvalidOwner",
      "type": "error"
    },
    {
      "inputs": [
        {
          "internalType": "address",
          "name": "receiver",
          "type": "address"
        }
      ],
      "name": "ERC721InvalidReceiver",
      "type": "error"
    },
    {
      "inputs": [
        {
          "internalType": "address",
          "name": "sender",
          "type": "address"
        }
      ],
      "name": "ERC721InvalidSender",
      "type": "error"
    },
    {
      "inputs": [
        {
          "internalType": "uint256",
          "name": "tokenId",
          "type": "uint256"
        }
      ],
      "name": "ERC721NonexistentToken",
      "type": "error"
    },
    {
      "inputs": [
        {
          "internalType": "address",
          "name": "owner",
          "type": "address"
        },
        {
          "internalType": "uint256",
          "name": "index",
          "type": "uint256"
        }
      ],
      "name": "ERC721OutOfBoundsIndex",
      "type": "error"
    },
    {
      "inputs": [
        {
          "internalType": "address",
          "name": "owner",
          "type": "address"
        }
      ],
      "name": "OwnableInvalidOwner",
      "type": "error"
    },
    {
      "inputs": [
        {
          "internalType": "address",
          "name": "account",
          "type": "address"
        }
      ],
      "name": "OwnableUnauthorizedAccount",
      "type": "error"
    },
    {
      "anonymous": false,
      "inputs": [
        {
          "indexed": true,
          "internalType": "address",
          "name": "owner",
          "type": "address"
        },
        {
          "indexed": true,
          "internalType": "address",
          "name": "approved",
          "type": "address"
        },
        {
          "indexed": true,
          "internalType": "uint256",
          "name": "tokenId",
          "type": "uint256"
        }
      ],
      "name": "Approval",
      "type": "event"
    },
    {
      "anonymous": false,
      "inputs": [
        {
          "indexed": true,
          "internalType": "address",
          "name": "owner",
          "type": "address"
        },
        {
          "indexed": true,
          "internalType": "address",
          "name": "operator",
          "type": "address"
        },
        {
          "indexed": false,
          "internalType": "bool",
          "name": "approved",
          "type": "bool"
        }
      ],
      "name": "ApprovalForAll",
      "type": "event"
    },
    {
      "anonymous": false,
      "inputs": [
        {
          "indexed": true,
          "internalType": "address",
          "name": "previousOwner",
          "type": "address"
        },
        {
          "indexed": true,
          "internalType": "address",
          "name": "newOwner",
          "type": "address"
        }
      ],
      "name": "OwnershipTransferred",
      "type": "event"
    },
    {
      "anonymous": false,
      "inputs": [
        {
          "indexed": true,
          "internalType": "address",
          "name": "from",
          "type": "address"
        },
        {
          "indexed": true,
          "internalType": "address",
          "name": "to",
          "type": "address"
        },
        {
          "indexed": true,
          "internalType": "uint256",
          "name": "tokenId",
          "type": "uint256"
        }
      ],
      "name": "Transfer",
      "type": "event"
    },
    {
      "inputs": [
        {
          "internalType": "address",
          "name": "to",
          "type": "address"
        },
        {
          "internalType": "uint256",
          "name": "tokenId",
          "type": "uint256"
        }
      ],
      "name": "approve",
      "outputs": [],
      "stateMutability": "nonpayable",
      "type": "function"
    },
    {
      "inputs": [
        {
          "internalType": "address",
          "name": "owner",
          "type": "address"
        }
      ],
      "name": "balanceOf",
      "outputs": [
        {
          "internalType": "uint256",
          "name": "",
          "type": "uint256"
        }
      ],
      "stateMutability": "view",
      "type": "function"
    },
    {
      "inputs": [
        {
          "internalType": "uint256",
          "name": "tokenId",
          "type": "uint256"
        }
      ],
      "name": "getApproved",
      "outputs": [
        {
          "internalType": "address",
          "name": "",
          "type": "address"
        }
      ],
      "stateMutability": "view",
      "type": "function"
    },
    {
      "inputs": [
        {
          "internalType": "address",
          "name": "owner",
          "type": "address"
        },
        {
          "internalType": "address",
          "name": "operator",
          "type": "address"
        }
      ],
      "name": "isApprovedForAll",
      "outputs": [
        {
          "internalType": "bool",
          "name": "",
          "type": "bool"
        }
      ],
      "stateMutability": "view",
      "type": "function"
    },
    {
      "inputs": [
        {
          "internalType": "string",
          "name": "ipfsHash",
          "type": "string"
        }
      ],
      "name": "mint",
      "outputs": [
        {
          "internalType": "uint256",
          "name": "",
          "type": "uint256"
        }
      ],
      "stateMutability": "nonpayable",
      "type": "function"
    },
    {
      "inputs": [
        {
          "internalType": "address",
          "name": "to",
          "type": "address"
        },
        {
          "internalType": "string",
          "name": "ipfsHash",
          "type": "string"
        }
      ],
      "name": "mintNFT",
      "outputs": [
        {
          "internalType": "uint256",
          "name": "",
          "type": "uint256"
        }
      ],
      "stateMutability": "nonpayable",
      "type": "function"
    },
    {
      "inputs": [],
      "name": "name",
      "outputs": [
        {
          "internalType": "string",
          "name": "",
          "type": "string"
        }
      ],
      "stateMutability": "view",
      "type": "function"
    },
    {
      "inputs": [],
      "name": "owner",
      "outputs": [
        {
          "internalType": "address",
          "name": "",
          "type": "address"
        }
      ],
      "stateMutability": "view",
      "type": "function"
    },
    {
      "inputs": [
        {
          "internalType": "uint256",
          "name": "tokenId",
          "type": "uint256"
        }
      ],
      "name": "ownerOf",
      "outputs": [
        {
          "internalType": "address",
          "name": "",
          "type": "address"
        }
      ],
      "stateMutability": "view",
      "type": "function"
    },
    {
      "inputs": [],
      "name": "renounceOwnership",
      "outputs": [],
      "stateMutability": "nonpayable",
      "type": "function"
    },
    {
      "inputs": [
        {
          "internalType": "address",
          "name": "from",
          "type": "address"
        },
        {
          "internalType": "address",
          "name": "to",
          "type": "address"
        },
        {
          "internalType": "uint256",
          "name": "tokenId",
          "type": "uint256"
        }
      ],
      "name": "safeTransferFrom",
      "outputs": [],
      "stateMutability": "nonpayable",
      "type": "function"
    },
    {
      "inputs": [
        {
          "internalType": "address",
          "name": "from",
          "type": "address"
        },
        {
          "internalType": "address",
          "name": "to",
          "type": "address"
        },
        {
          "internalType": "uint256",
          "name": "tokenId",
          "type": "uint256"
        },
        {
          "internalType": "bytes",
          "name": "data",
          "type": "bytes"
        }
      ],
      "name": "safeTransferFrom",
      "outputs": [],
      "stateMutability": "nonpayable",
      "type": "function"
    },
    {
      "inputs": [
        {
          "internalType": "address",
          "name": "operator",
          "type": "address"
        },
        {
          "internalType": "bool",
          "name": "approved",
          "type": "bool"
        }
      ],
      "name": "setApprovalForAll",
      "outputs": [],
      "stateMutability": "nonpayable",
      "type": "function"
    },
    {
      "inputs": [
        {
          "internalType": "bytes4",
          "name": "interfaceId",
          "type": "bytes4"
        }
      ],
      "name": "supportsInterface",
      "outputs": [
        {
          "internalType": "bool",
          "name": "",
          "type": "bool"
        }
      ],
      "stateMutability": "view",
      "type": "function"
    },
    {
      "inputs": [],
      "name": "symbol",
      "outputs": [
        {
          "internalType": "string",
          "name": "",
          "type": "string"
        }
      ],
      "stateMutability": "view",
      "type": "function"
    },
    {
      "inputs": [
        {
          "internalType": "uint256",
          "name": "index",
          "type": "uint256"
        }
      ],
      "name": "tokenByIndex",
      "outputs": [
        {
          "internalType": "uint256",
          "name": "",
          "type": "uint256"
        }
      ],
      "stateMutability": "view",
      "type": "function"
    },
    {
      "inputs": [
        {
          "internalType": "address",
          "name": "owner",
          "type": "address"
        },
        {
          "internalType": "uint256",
          "name": "index",
          "type": "uint256"
        }
      ],
      "name": "tokenOfOwnerByIndex",
      "outputs": [
        {
          "internalType": "uint256",
          "name": "",
          "type": "uint256"
        }
      ],
      "stateMutability": "view",
      "type": "function"
    },
    {
      "inputs": [
        {
          "internalType": "uint256",
          "name": "tokenId",
          "type": "uint256"
        }
      ],
      "name": "tokenURI",
      "outputs": [
        {
          "internalType": "string",
          "name": "",
          "type": "string"
        }
      ],
      "stateMutability": "view",
      "type": "function"
    },
    {
      "inputs": [
        {
          "internalType": "address",
          "name": "owner",
          "type": "address"
        }
      ],
      "name": "tokensOfOwner",
      "outputs": [
        {
          "internalType": "uint256[]",
          "name": "",
          "type": "uint256[]"
        }
      ],
      "stateMutability": "view",
      "type": "function"
    },
    {
      "inputs": [],
      "name": "totalSupply",
      "outputs": [
        {
          "internalType": "uint256",
          "name": "",
          "type": "uint256"
        }
      ],
      "stateMutability": "view",
      "type": "function"
    },
    {
      "inputs": [
        {
          "internalType": "address",
          "name": "from",
          "type": "address"
        },
        {
          "internalType": "address",
          "name": "to",
          "type": "address"
        },
        {
          "internalType": "uint256",
          "name": "tokenId",
          "type": "uint256"
        }
      ],
      "name": "transferFrom",
      "outputs": [],
      "stateMutability": "nonpayable",
      "type": "function"
    },
    {
      "inputs": [
        {
          "internalType": "address",
          "name": "newOwner",
          "type": "address"
        }
      ],
      "name": "transferOwnership",
      "outputs": [],
      "stateMutability": "nonpayable",
      "type": "function"
    }
  ],
  "bytecode": "0x608060405234801561001057600080fd5b503360405180604001604052806008815260200167111a5c1b1bd3919560c21b815250604051806040016040528060048152602001631113919560e21b815250816000908161005f91906101a2565b50600161006c82826101a2565b5050506001600160a01b03811661009d57604051631e4fbdf760e01b81526000600482015260240160405180910390fd5b6100a6816100b1565b506001600b55610260565b600a80546001600160a01b038381166001600160a01b0319831681179093556040519116919082907f8be0079c531659141344cd1fd0a4f28419497f9722a3daafe3b4186f6b6457e090600090a35050565b634e487b7160e01b600052604160045260246000fd5b600181811c9082168061012d57607f821691505b60208210810361014d57634e487b7160e01b600052602260045260246000fd5b50919050565b601f82111561019d57806000526020600020601f840160051c8101602085101561017a5750805b601f840160051c820191505b8181101561019a5760008155600101610186565b50505b505050565b81516001600160401b038111156101bb576101bb610103565b6101cf816101c98454610119565b84610153565b6020601f82116001811461020357600083156101eb5750848201515b600019600385901b1c1916600184901b17845561019a565b600084815260208120601f198516915b828110156102335787850151825560209485019460019092019101610213565b50848210156102515786840151600019600387901b60f8161c191681555b50505050600190811b01905550565b6119c68061026f6000396000f3fe608060405234801561001057600080fd5b50600436106101425760003560e01c8063715018a6116100b8578063b88d4fde1161007c578063b88d4fde1461029c578063c87b56dd146102af578063d85d3d27146102c2578063e985e9c5146102d5578063eacabe14146102e8578063f2fde38b146102fb57600080fd5b8063715018a6146102485780638462151c146102505780638da5cb5b1461027057806395d89b4114610281578063a22cb4651461028957600080fd5b806323b872dd1161010a57806323b872dd146101d65780632f745c59146101e957806342842e0e146101fc5780634f6ccce71461020f5780636352211e1461022257806370a082311461023557600080fd5b806301ffc9a71461014757806306fdde031461016f578063081812fc14610184578063095ea7b3146101af57806318160ddd146101c4575b600080fd5b61015a61015536600461139f565b61030e565b60405190151581526020015b60405180910390f35b610177610339565b604051610166919061140c565b61019761019236600461141f565b6103cb565b6040516001600160a01b039091168152602001610166565b6101c26101bd366004611454565b6103f4565b005b6008545b604051908152602001610166565b6101c26101e436600461147e565b610403565b6101c86101f7366004611454565b610493565b6101c261020a36600461147e565b6104f8565b6101c861021d36600461141f565b610518565b61019761023036600461141f565b610571565b6101c86102433660046114bb565b61057c565b6101c26105c4565b61026361025e3660046114bb565b6105d8565b60405161016691906114d6565b600a546001600160a01b0316610197565b610177610670565b6101c2610297366004611519565b61067f565b6101c26102aa3660046115e5565b61068a565b6101776102bd36600461141f565b6106a2565b6101c86102d0366004611681565b6107c2565b61015a6102e33660046116b6565b6107f0565b6101c86102f63660046116e9565b61081e565b6101c26103093660046114bb565b61084c565b60006001600160e01b0319821663780e9d6360e01b148061033357506103338261088a565b92915050565b60606000805461034890611737565b80601f016020809104026020016040519081016040528092919081815260200182805461037490611737565b80156103c15780601f10610396576101008083540402835291602001916103c1565b820191906000526020600020905b8154815290600101906020018083116103a457829003601f168201915b5050505050905090565b60006103d6826108da565b506000828152600460205260409020546001600160a01b0316610333565b6103ff828233610913565b5050565b6001600160a01b03821661043257604051633250574960e11b8152600060048201526024015b60405180910390fd5b600061043f838333610920565b9050836001600160a01b0316816001600160a01b03161461048d576040516364283d7b60e01b81526001600160a01b0380861660048301526024820184905282166044820152606401610429565b50505050565b600061049e8361057c565b82106104cf5760405163295f44f760e21b81526001600160a01b038416600482015260248101839052604401610429565b506001600160a01b03919091166000908152600660209081526040808320938352929052205490565b6105138383836040518060200160405280600081525061068a565b505050565b600061052360085490565b821061054c5760405163295f44f760e21b81526000600482015260248101839052604401610429565b6008828154811061055f5761055f611771565b90600052602060002001549050919050565b6000610333826108da565b60006001600160a01b0382166105a8576040516322718ad960e21b815260006004820152602401610429565b506001600160a01b031660009081526003602052604090205490565b6105cc6109f5565b6105d66000610a22565b565b606060006105e58361057c565b905060008167ffffffffffffffff81111561060257610602611555565b60405190808252806020026020018201604052801561062b578160200160208202803683370190505b50905060005b82811015610668576106438582610493565b82828151811061065557610655611771565b6020908102919091010152600101610631565b509392505050565b60606001805461034890611737565b6103ff338383610a74565b610695848484610403565b61048d3385858585610b13565b6000818152600260205260409020546060906001600160a01b03166107095760405162461bcd60e51b815260206004820152601f60248201527f55524920717565727920666f72206e6f6e6578697374656e7420746f6b656e006044820152606401610429565b6000828152600c60205260408120805461072290611737565b80601f016020809104026020016040519081016040528092919081815260200182805461074e90611737565b801561079b5780601f106107705761010080835404028352916020019161079b565b820191906000526020600020905b81548152906001019060200180831161077e57829003601f168201915b505050505090506000815111156107b25792915050565b6107bb83610c3e565b9392505050565b600b8054600091829190826107d68361179d565b9190505590506107e63382610ca5565b6103338184610cbf565b6001600160a01b03918216600090815260056020908152604080832093909416825291909152205460ff1690565b600b8054600091829190826108328361179d565b9190505590506108428482610ca5565b6107bb8184610cbf565b6108546109f5565b6001600160a01b03811661087e57604051631e4fbdf760e01b815260006004820152602401610429565b61088781610a22565b50565b60006001600160e01b031982166380ac58cd60e01b14806108bb57506001600160e01b03198216635b5e139f60e01b145b8061033357506301ffc9a760e01b6001600160e01b0319831614610333565b6000818152600260205260408120546001600160a01b03168061033357604051637e27328960e01b815260048101849052602401610429565b6105138383836001610d3b565b60008061092e858585610e41565b90506001600160a01b03811661098b5761098684600880546000838152600960205260408120829055600182018355919091527ff3f7a9fe364faab93b216da50a3214154f22a0a2b415b23a84c8169e8b636ee30155565b6109ae565b846001600160a01b0316816001600160a01b0316146109ae576109ae8185610f3a565b6001600160a01b0385166109ca576109c584610fbb565b6109ed565b846001600160a01b0316816001600160a01b0316146109ed576109ed858561106a565b949350505050565b600a546001600160a01b031633146105d65760405163118cdaa760e01b8152336004820152602401610429565b600a80546001600160a01b038381166001600160a01b0319831681179093556040519116919082907f8be0079c531659141344cd1fd0a4f28419497f9722a3daafe3b4186f6b6457e090600090a35050565b6001600160a01b038216610aa657604051630b61174360e31b81526001600160a01b0383166004820152602401610429565b6001600160a01b03838116600081815260056020908152604080832094871680845294825291829020805460ff191686151590811790915591519182527f17307eab39ab6107e8899845ad3d59bd9653f200f220920489ca2b5937696c31910160405180910390a3505050565b6001600160a01b0383163b15610c3757604051630a85bd0160e11b81526001600160a01b0384169063150b7a0290610b559088908890879087906004016117b6565b6020604051808303816000875af1925050508015610b90575060408051601f3d908101601f19168201909252610b8d918101906117f3565b60015b610bf9573d808015610bbe576040519150601f19603f3d011682016040523d82523d6000602084013e610bc3565b606091505b508051600003610bf157604051633250574960e11b81526001600160a01b0385166004820152602401610429565b805181602001fd5b6001600160e01b03198116630a85bd0160e11b14610c3557604051633250574960e11b81526001600160a01b0385166004820152602401610429565b505b5050505050565b6060610c49826108da565b506000610c546110ba565b90506000815111610c7457604051806020016040528060008152506107bb565b80610c7e846110da565b604051602001610c8f929190611810565b6040516020818303038152906040529392505050565b6103ff82826040518060200160405280600081525061116d565b6000828152600260205260409020546001600160a01b0316610d235760405162461bcd60e51b815260206004820152601c60248201527f55524920736574206f66206e6f6e6578697374656e7420746f6b656e000000006044820152606401610429565b6000828152600c602052604090206105138282611886565b8080610d4f57506001600160a01b03821615155b15610e11576000610d5f846108da565b90506001600160a01b03831615801590610d8b5750826001600160a01b0316816001600160a01b031614155b8015610d9e5750610d9c81846107f0565b155b15610dc75760405163a9fbf51f60e01b81526001600160a01b0384166004820152602401610429565b8115610e0f5783856001600160a01b0316826001600160a01b03167f8c5be1e5ebec7d5bd14f71427d1e84f3dd0314c0f7b2291e5b200ac8c7c3b92560405160405180910390a45b505b5050600090815260046020526040902080546001600160a01b0319166001600160a01b0392909216919091179055565b6000828152600260205260408120546001600160a01b0390811690831615610e6e57610e6e818486611185565b6001600160a01b03811615610eac57610e8b600085600080610d3b565b6001600160a01b038116600090815260036020526040902080546000190190555b6001600160a01b03851615610edb576001600160a01b0385166000908152600360205260409020805460010190555b60008481526002602052604080822080546001600160a01b0319166001600160a01b0389811691821790925591518793918516917fddf252ad1be2c89b69c2b068fc378daa952ba7f163c4a11628f55a4df523b3ef91a4949350505050565b6000610f458361057c565b6000838152600760209081526040808320546001600160a01b0388168452600690925290912091925090818314610f9c57600083815260208281526040808320548584528184208190558352600790915290208290555b6000938452600760209081526040808620869055938552525081205550565b600854600090610fcd90600190611945565b60008381526009602052604081205460088054939450909284908110610ff557610ff5611771565b90600052602060002001549050806008838154811061101657611016611771565b600091825260208083209091019290925582815260099091526040808220849055858252812055600880548061104e5761104e611958565b6001900381819060005260206000200160009055905550505050565b600060016110778461057c565b6110819190611945565b6001600160a01b039093166000908152600660209081526040808320868452825280832085905593825260079052919091209190915550565b606060405180606001604052806022815260200161196f60229139905090565b606060006110e7836111e9565b600101905060008167ffffffffffffffff81111561110757611107611555565b6040519080825280601f01601f191660200182016040528015611131576020820181803683370190505b5090508181016020015b600019016f181899199a1a9b1b9c1cb0b131b232b360811b600a86061a8153600a850494508461113b57509392505050565b61117783836112c1565b610513336000858585610b13565b611190838383611326565b610513576001600160a01b0383166111be57604051637e27328960e01b815260048101829052602401610429565b60405163177e802f60e01b81526001600160a01b038316600482015260248101829052604401610429565b60008072184f03e93ff9f4daa797ed6e38ed64bf6a1f0160401b83106112285772184f03e93ff9f4daa797ed6e38ed64bf6a1f0160401b830492506040015b6d04ee2d6d415b85acef81000000008310611254576d04ee2d6d415b85acef8100000000830492506020015b662386f26fc10000831061127257662386f26fc10000830492506010015b6305f5e100831061128a576305f5e100830492506008015b612710831061129e57612710830492506004015b606483106112b0576064830492506002015b600a83106103335760010192915050565b6001600160a01b0382166112eb57604051633250574960e11b815260006004820152602401610429565b60006112f983836000610920565b90506001600160a01b03811615610513576040516339e3563760e11b815260006004820152602401610429565b60006001600160a01b038316158015906109ed5750826001600160a01b0316846001600160a01b03161480611360575061136084846107f0565b806109ed5750506000908152600460205260409020546001600160a01b03908116911614919050565b6001600160e01b03198116811461088757600080fd5b6000602082840312156113b157600080fd5b81356107bb81611389565b60005b838110156113d75781810151838201526020016113bf565b50506000910152565b600081518084526113f88160208601602086016113bc565b601f01601f19169290920160200192915050565b6020815260006107bb60208301846113e0565b60006020828403121561143157600080fd5b5035919050565b80356001600160a01b038116811461144f57600080fd5b919050565b6000806040838503121561146757600080fd5b61147083611438565b946020939093013593505050565b60008060006060848603121561149357600080fd5b61149c84611438565b92506114aa60208501611438565b929592945050506040919091013590565b6000602082840312156114cd57600080fd5b6107bb82611438565b602080825282518282018190526000918401906040840190835b8181101561150e5783518352602093840193909201916001016114f0565b509095945050505050565b6000806040838503121561152c57600080fd5b61153583611438565b91506020830135801515811461154a57600080fd5b809150509250929050565b634e487b7160e01b600052604160045260246000fd5b60008067ffffffffffffffff84111561158657611586611555565b50604051601f19601f85018116603f0116810181811067ffffffffffffffff821117156115b5576115b5611555565b6040528381529050808284018510156115cd57600080fd5b83836020830137600060208583010152509392505050565b600080600080608085870312156115fb57600080fd5b61160485611438565b935061161260208601611438565b925060408501359150606085013567ffffffffffffffff81111561163557600080fd5b8501601f8101871361164657600080fd5b6116558782356020840161156b565b91505092959194509250565b600082601f83011261167257600080fd5b6107bb8383356020850161156b565b60006020828403121561169357600080fd5b813567ffffffffffffffff8111156116aa57600080fd5b6109ed84828501611661565b600080604083850312156116c957600080fd5b6116d283611438565b91506116e060208401611438565b90509250929050565b600080604083850312156116fc57600080fd5b61170583611438565b9150602083013567ffffffffffffffff81111561172157600080fd5b61172d85828601611661565b9150509250929050565b600181811c9082168061174b57607f821691505b60208210810361176b57634e487b7160e01b600052602260045260246000fd5b50919050565b634e487b7160e01b600052603260045260246000fd5b634e487b7160e01b600052601160045260246000fd5b6000600182016117af576117af611787565b5060010190565b6001600160a01b03858116825284166020820152604081018390526080606082018190526000906117e9908301846113e0565b9695505050505050565b60006020828403121561180557600080fd5b81516107bb81611389565b600083516118228184602088016113bc565b8351908301906118368183602088016113bc565b01949350505050565b601f82111561051357806000526020600020601f840160051c810160208510156118665750805b601f840160051c820191505b81811015610c375760008155600101611872565b815167ffffffffffffffff8111156118a0576118a0611555565b6118b4816118ae8454611737565b8461183f565b6020601f8211600181146118e857600083156118d05750848201515b600019600385901b1c1916600184901b178455610c37565b600084815260208120601f198516915b8281101561191857878501518255602094850194600190920191016118f8565b50848210156119365786840151600019600387901b60f8161c191681555b50505050600190811b01905550565b8181038181111561033357610333611787565b634e487b7160e01b600052603160045260246000fdfe68747470733a2f2f676174657761792e70696e6174612e636c6f75642f697066732fa26469706673582212209a1a62f5b232f65f11880a6552d75d4bd60138c579b00abc61a220146678e0e864736f6c634300081e0033",
  "linkReferences": {},
  "deployedLinkReferences": {}
}