{
  "_format": "hh-sol-artifact-1",
  "contractName": "DiploNFT",
  "sourceName": "contracts/DiploNFT.sol",
  "abi": [
    {
      "inputs": [],
      "stateMutability": "nonpayable",
      "type": "constructor"
    },
    {
      "inputs": [],
      "name": "ERC721EnumerableForbiddenBatchMint",
      "type": "error"
    },
    {
      "inputs": [
        {
          "internalType": "address",
          "name": "sender",
          "type": "address"
        },
        {
          "internalType": "uint256",
          "name": "tokenId",
          "type": "uint256"
        },
        {
          "internalType": "address",
          "name": "owner",
          "type": "address"
        }
      ],
      "name": "ERC721IncorrectOwner",
      "type": "error"
    },
    {
      "inputs": [
        {
          "internalType": "address",
          "name": "operator",
          "type": "address"
        },
        {
          "internalType": "uint256",
          "name": "tokenId",
          "type": "uint256"
        }
      ],
      "name": "ERC721InsufficientApproval",
      "type": "error"
    },
    {
      "inputs": [
        {
          "internalType": "address",
          "name": "approver",
          "type": "address"
        }
      ],
      "name": "ERC721InvalidApprover",
      "type": "error"
    },
    {
      "inputs": [
        {
          "internalType": "address",
          "name": "operator",
          "type": "address"
        }
      ],
      "name": "ERC721InvalidOperator",
      "type": "error"
    },
    {
      "inputs": [
        {
          "internalType": "address",
          "name": "owner",
          "type": "address"
        }
      ],
      "name": "ERC721InvalidOwner",
      "type": "error"
    },
    {
      "inputs": [
        {
          "internalType": "address",
          "name": "receiver",
          "type": "address"
        }
      ],
      "name": "ERC721InvalidReceiver",
      "type": "error"
    },
    {
      "inputs": [
        {
          "internalType": "address",
          "name": "sender",
          "type": "address"
        }
      ],
      "name": "ERC721InvalidSender",
      "type": "error"
    },
    {
      "inputs": [
        {
          "internalType": "uint256",
          "name": "tokenId",
          "type": "uint256"
        }
      ],
      "name": "ERC721NonexistentToken",
      "type": "error"
    },
    {
      "inputs": [
        {
          "internalType": "address",
          "name": "owner",
          "type": "address"
        },
        {
          "internalType": "uint256",
          "name": "index",
          "type": "uint256"
        }
      ],
      "name": "ERC721OutOfBoundsIndex",
      "type": "error"
    },
    {
      "inputs": [
        {
          "internalType": "address",
          "name": "owner",
          "type": "address"
        }
      ],
      "name": "OwnableInvalidOwner",
      "type": "error"
    },
    {
      "inputs": [
        {
          "internalType": "address",
          "name": "account",
          "type": "address"
        }
      ],
      "name": "OwnableUnauthorizedAccount",
      "type": "error"
    },
    {
      "anonymous": false,
      "inputs": [
        {
          "indexed": true,
          "internalType": "address",
          "name": "owner",
          "type": "address"
        },
        {
          "indexed": true,
          "internalType": "address",
          "name": "approved",
          "type": "address"
        },
        {
          "indexed": true,
          "internalType": "uint256",
          "name": "tokenId",
          "type": "uint256"
        }
      ],
      "name": "Approval",
      "type": "event"
    },
    {
      "anonymous": false,
      "inputs": [
        {
          "indexed": true,
          "internalType": "address",
          "name": "owner",
          "type": "address"
        },
        {
          "indexed": true,
          "internalType": "address",
          "name": "operator",
          "type": "address"
        },
        {
          "indexed": false,
          "internalType": "bool",
          "name": "approved",
          "type": "bool"
        }
      ],
      "name": "ApprovalForAll",
      "type": "event"
    },
    {
      "anonymous": false,
      "inputs": [
        {
          "indexed": true,
          "internalType": "address",
          "name": "previousOwner",
          "type": "address"
        },
        {
          "indexed": true,
          "internalType": "address",
          "name": "newOwner",
          "type": "address"
        }
      ],
      "name": "OwnershipTransferred",
      "type": "event"
    },
    {
      "anonymous": false,
      "inputs": [
        {
          "indexed": true,
          "internalType": "address",
          "name": "from",
          "type": "address"
        },
        {
          "indexed": true,
          "internalType": "address",
          "name": "to",
          "type": "address"
        },
        {
          "indexed": true,
          "internalType": "uint256",
          "name": "tokenId",
          "type": "uint256"
        }
      ],
      "name": "Transfer",
      "type": "event"
    },
    {
      "inputs": [
        {
          "internalType": "address",
          "name": "to",
          "type": "address"
        },
        {
          "internalType": "uint256",
          "name": "tokenId",
          "type": "uint256"
        }
      ],
      "name": "approve",
      "outputs": [],
      "stateMutability": "nonpayable",
      "type": "function"
    },
    {
      "inputs": [
        {
          "internalType": "address",
          "name": "owner",
          "type": "address"
        }
      ],
      "name": "balanceOf",
      "outputs": [
        {
          "internalType": "uint256",
          "name": "",
          "type": "uint256"
        }
      ],
      "stateMutability": "view",
      "type": "function"
    },
    {
      "inputs": [
        {
          "internalType": "uint256",
          "name": "tokenId",
          "type": "uint256"
        }
      ],
      "name": "getApproved",
      "outputs": [
        {
          "internalType": "address",
          "name": "",
          "type": "address"
        }
      ],
      "stateMutability": "view",
      "type": "function"
    },
    {
      "inputs": [
        {
          "internalType": "address",
          "name": "owner",
          "type": "address"
        },
        {
          "internalType": "address",
          "name": "operator",
          "type": "address"
        }
      ],
      "name": "isApprovedForAll",
      "outputs": [
        {
          "internalType": "bool",
          "name": "",
          "type": "bool"
        }
      ],
      "stateMutability": "view",
      "type": "function"
    },
    {
      "inputs": [
        {
          "internalType": "address",
          "name": "to",
          "type": "address"
        },
        {
          "internalType": "string",
          "name": "ipfsHash",
          "type": "string"
        }
      ],
      "name": "mintNFT",
      "outputs": [
        {
          "internalType": "uint256",
          "name": "",
          "type": "uint256"
        }
      ],
      "stateMutability": "nonpayable",
      "type": "function"
    },
    {
      "inputs": [],
      "name": "name",
      "outputs": [
        {
          "internalType": "string",
          "name": "",
          "type": "string"
        }
      ],
      "stateMutability": "view",
      "type": "function"
    },
    {
      "inputs": [],
      "name": "owner",
      "outputs": [
        {
          "internalType": "address",
          "name": "",
          "type": "address"
        }
      ],
      "stateMutability": "view",
      "type": "function"
    },
    {
      "inputs": [
        {
          "internalType": "uint256",
          "name": "tokenId",
          "type": "uint256"
        }
      ],
      "name": "ownerOf",
      "outputs": [
        {
          "internalType": "address",
          "name": "",
          "type": "address"
        }
      ],
      "stateMutability": "view",
      "type": "function"
    },
    {
      "inputs": [],
      "name": "renounceOwnership",
      "outputs": [],
      "stateMutability": "nonpayable",
      "type": "function"
    },
    {
      "inputs": [
        {
          "internalType": "address",
          "name": "from",
          "type": "address"
        },
        {
          "internalType": "address",
          "name": "to",
          "type": "address"
        },
        {
          "internalType": "uint256",
          "name": "tokenId",
          "type": "uint256"
        }
      ],
      "name": "safeTransferFrom",
      "outputs": [],
      "stateMutability": "nonpayable",
      "type": "function"
    },
    {
      "inputs": [
        {
          "internalType": "address",
          "name": "from",
          "type": "address"
        },
        {
          "internalType": "address",
          "name": "to",
          "type": "address"
        },
        {
          "internalType": "uint256",
          "name": "tokenId",
          "type": "uint256"
        },
        {
          "internalType": "bytes",
          "name": "data",
          "type": "bytes"
        }
      ],
      "name": "safeTransferFrom",
      "outputs": [],
      "stateMutability": "nonpayable",
      "type": "function"
    },
    {
      "inputs": [
        {
          "internalType": "address",
          "name": "operator",
          "type": "address"
        },
        {
          "internalType": "bool",
          "name": "approved",
          "type": "bool"
        }
      ],
      "name": "setApprovalForAll",
      "outputs": [],
      "stateMutability": "nonpayable",
      "type": "function"
    },
    {
      "inputs": [
        {
          "internalType": "bytes4",
          "name": "interfaceId",
          "type": "bytes4"
        }
      ],
      "name": "supportsInterface",
      "outputs": [
        {
          "internalType": "bool",
          "name": "",
          "type": "bool"
        }
      ],
      "stateMutability": "view",
      "type": "function"
    },
    {
      "inputs": [],
      "name": "symbol",
      "outputs": [
        {
          "internalType": "string",
          "name": "",
          "type": "string"
        }
      ],
      "stateMutability": "view",
      "type": "function"
    },
    {
      "inputs": [
        {
          "internalType": "uint256",
          "name": "index",
          "type": "uint256"
        }
      ],
      "name": "tokenByIndex",
      "outputs": [
        {
          "internalType": "uint256",
          "name": "",
          "type": "uint256"
        }
      ],
      "stateMutability": "view",
      "type": "function"
    },
    {
      "inputs": [
        {
          "internalType": "address",
          "name": "owner",
          "type": "address"
        },
        {
          "internalType": "uint256",
          "name": "index",
          "type": "uint256"
        }
      ],
      "name": "tokenOfOwnerByIndex",
      "outputs": [
        {
          "internalType": "uint256",
          "name": "",
          "type": "uint256"
        }
      ],
      "stateMutability": "view",
      "type": "function"
    },
    {
      "inputs": [
        {
          "internalType": "uint256",
          "name": "tokenId",
          "type": "uint256"
        }
      ],
      "name": "tokenURI",
      "outputs": [
        {
          "internalType": "string",
          "name": "",
          "type": "string"
        }
      ],
      "stateMutability": "view",
      "type": "function"
    },
    {
      "inputs": [
        {
          "internalType": "address",
          "name": "owner",
          "type": "address"
        }
      ],
      "name": "tokensOfOwner",
      "outputs": [
        {
          "internalType": "uint256[]",
          "name": "",
          "type": "uint256[]"
        }
      ],
      "stateMutability": "view",
      "type": "function"
    },
    {
      "inputs": [],
      "name": "totalSupply",
      "outputs": [
        {
          "internalType": "uint256",
          "name": "",
          "type": "uint256"
        }
      ],
      "stateMutability": "view",
      "type": "function"
    },
    {
      "inputs": [
        {
          "internalType": "address",
          "name": "from",
          "type": "address"
        },
        {
          "internalType": "address",
          "name": "to",
          "type": "address"
        },
        {
          "internalType": "uint256",
          "name": "tokenId",
          "type": "uint256"
        }
      ],
      "name": "transferFrom",
      "outputs": [],
      "stateMutability": "nonpayable",
      "type": "function"
    },
    {
      "inputs": [
        {
          "internalType": "address",
          "name": "newOwner",
          "type": "address"
        }
      ],
      "name": "transferOwnership",
      "outputs": [],
      "stateMutability": "nonpayable",
      "type": "function"
    }
  ],
  "bytecode": "0x608060405234801561001057600080fd5b503360405180604001604052806008815260200167111a5c1b1bd3919560c21b815250604051806040016040528060048152602001631113919560e21b815250816000908161005f91906101a2565b50600161006c82826101a2565b5050506001600160a01b03811661009d57604051631e4fbdf760e01b81526000600482015260240160405180910390fd5b6100a6816100b1565b506001600b55610260565b600a80546001600160a01b038381166001600160a01b0319831681179093556040519116919082907f8be0079c531659141344cd1fd0a4f28419497f9722a3daafe3b4186f6b6457e090600090a35050565b634e487b7160e01b600052604160045260246000fd5b600181811c9082168061012d57607f821691505b60208210810361014d57634e487b7160e01b600052602260045260246000fd5b50919050565b601f82111561019d57806000526020600020601f840160051c8101602085101561017a5750805b601f840160051c820191505b8181101561019a5760008155600101610186565b50505b505050565b81516001600160401b038111156101bb576101bb610103565b6101cf816101c98454610119565b84610153565b6020601f82116001811461020357600083156101eb5750848201515b600019600385901b1c1916600184901b17845561019a565b600084815260208120601f198516915b828110156102335787850151825560209485019460019092019101610213565b50848210156102515786840151600019600387901b60f8161c191681555b50505050600190811b01905550565b6119908061026f6000396000f3fe608060405234801561001057600080fd5b50600436106101375760003560e01c806370a08231116100b8578063a22cb4651161007c578063a22cb4651461027e578063b88d4fde14610291578063c87b56dd146102a4578063e985e9c5146102b7578063eacabe14146102ca578063f2fde38b146102dd57600080fd5b806370a082311461022a578063715018a61461023d5780638462151c146102455780638da5cb5b1461026557806395d89b411461027657600080fd5b806323b872dd116100ff57806323b872dd146101cb5780632f745c59146101de57806342842e0e146101f15780634f6ccce7146102045780636352211e1461021757600080fd5b806301ffc9a71461013c57806306fdde0314610164578063081812fc14610179578063095ea7b3146101a457806318160ddd146101b9575b600080fd5b61014f61014a3660046113cc565b6102f0565b60405190151581526020015b60405180910390f35b61016c61031b565b60405161015b9190611439565b61018c61018736600461144c565b6103ad565b6040516001600160a01b03909116815260200161015b565b6101b76101b2366004611481565b6103d6565b005b6008545b60405190815260200161015b565b6101b76101d93660046114ab565b6103e5565b6101bd6101ec366004611481565b610475565b6101b76101ff3660046114ab565b6104da565b6101bd61021236600461144c565b6104fa565b61018c61022536600461144c565b610553565b6101bd6102383660046114e8565b61055e565b6101b76105a6565b6102586102533660046114e8565b6105ba565b60405161015b9190611503565b600a546001600160a01b031661018c565b61016c610652565b6101b761028c366004611546565b610661565b6101b761029f366004611612565b61066c565b61016c6102b236600461144c565b610684565b61014f6102c536600461168e565b61080d565b6101bd6102d83660046116c1565b61083b565b6101b76102eb3660046114e8565b610877565b60006001600160e01b0319821663780e9d6360e01b14806103155750610315826108b5565b92915050565b60606000805461032a90611723565b80601f016020809104026020016040519081016040528092919081815260200182805461035690611723565b80156103a35780601f10610378576101008083540402835291602001916103a3565b820191906000526020600020905b81548152906001019060200180831161038657829003601f168201915b5050505050905090565b60006103b882610905565b506000828152600460205260409020546001600160a01b0316610315565b6103e182823361093e565b5050565b6001600160a01b03821661041457604051633250574960e11b8152600060048201526024015b60405180910390fd5b600061042183833361094b565b9050836001600160a01b0316816001600160a01b03161461046f576040516364283d7b60e01b81526001600160a01b038086166004830152602482018490528216604482015260640161040b565b50505050565b60006104808361055e565b82106104b15760405163295f44f760e21b81526001600160a01b03841660048201526024810183905260440161040b565b506001600160a01b03919091166000908152600660209081526040808320938352929052205490565b6104f58383836040518060200160405280600081525061066c565b505050565b600061050560085490565b821061052e5760405163295f44f760e21b8152600060048201526024810183905260440161040b565b600882815481106105415761054161175d565b90600052602060002001549050919050565b600061031582610905565b60006001600160a01b03821661058a576040516322718ad960e21b81526000600482015260240161040b565b506001600160a01b031660009081526003602052604090205490565b6105ae610a18565b6105b86000610a45565b565b606060006105c78361055e565b905060008167ffffffffffffffff8111156105e4576105e4611582565b60405190808252806020026020018201604052801561060d578160200160208202803683370190505b50905060005b8281101561064a576106258582610475565b8282815181106106375761063761175d565b6020908102919091010152600101610613565b509392505050565b60606001805461032a90611723565b6103e1338383610a97565b6106778484846103e5565b61046f3385858585610b36565b6000818152600260205260409020546060906001600160a01b03166106eb5760405162461bcd60e51b815260206004820152601f60248201527f55524920717565727920666f72206e6f6e6578697374656e7420746f6b656e00604482015260640161040b565b6000828152600c60205260408120805461070490611723565b80601f016020809104026020016040519081016040528092919081815260200182805461073090611723565b801561077d5780601f106107525761010080835404028352916020019161077d565b820191906000526020600020905b81548152906001019060200180831161076057829003601f168201915b5050505050905060006107b860408051808201909152601581527468747470733a2f2f697066732e696f2f697066732f60581b602082015290565b905080516000036107ca575092915050565b8151156107fc5780826040516020016107e4929190611773565b60405160208183030381529060405292505050919050565b61080584610c61565b949350505050565b6001600160a01b03918216600090815260056020908152604080832093909416825291909152205460ff1690565b6000610845610a18565b600b805460009182610856836117b8565b9190505590506108668482610cf2565b6108708184610d0c565b9392505050565b61087f610a18565b6001600160a01b0381166108a957604051631e4fbdf760e01b81526000600482015260240161040b565b6108b281610a45565b50565b60006001600160e01b031982166380ac58cd60e01b14806108e657506001600160e01b03198216635b5e139f60e01b145b8061031557506301ffc9a760e01b6001600160e01b0319831614610315565b6000818152600260205260408120546001600160a01b03168061031557604051637e27328960e01b81526004810184905260240161040b565b6104f58383836001610d88565b600080610959858585610e8e565b90506001600160a01b0381166109b6576109b184600880546000838152600960205260408120829055600182018355919091527ff3f7a9fe364faab93b216da50a3214154f22a0a2b415b23a84c8169e8b636ee30155565b6109d9565b846001600160a01b0316816001600160a01b0316146109d9576109d98185610f87565b6001600160a01b0385166109f5576109f084611008565b610805565b846001600160a01b0316816001600160a01b0316146108055761080585856110b7565b600a546001600160a01b031633146105b85760405163118cdaa760e01b815233600482015260240161040b565b600a80546001600160a01b038381166001600160a01b0319831681179093556040519116919082907f8be0079c531659141344cd1fd0a4f28419497f9722a3daafe3b4186f6b6457e090600090a35050565b6001600160a01b038216610ac957604051630b61174360e31b81526001600160a01b038316600482015260240161040b565b6001600160a01b03838116600081815260056020908152604080832094871680845294825291829020805460ff191686151590811790915591519182527f17307eab39ab6107e8899845ad3d59bd9653f200f220920489ca2b5937696c31910160405180910390a3505050565b6001600160a01b0383163b15610c5a57604051630a85bd0160e11b81526001600160a01b0384169063150b7a0290610b789088908890879087906004016117d1565b6020604051808303816000875af1925050508015610bb3575060408051601f3d908101601f19168201909252610bb09181019061180e565b60015b610c1c573d808015610be1576040519150601f19603f3d011682016040523d82523d6000602084013e610be6565b606091505b508051600003610c1457604051633250574960e11b81526001600160a01b038516600482015260240161040b565b805181602001fd5b6001600160e01b03198116630a85bd0160e11b14610c5857604051633250574960e11b81526001600160a01b038516600482015260240161040b565b505b5050505050565b6060610c6c82610905565b506000610ca160408051808201909152601581527468747470733a2f2f697066732e696f2f697066732f60581b602082015290565b90506000815111610cc15760405180602001604052806000815250610870565b80610ccb84611107565b604051602001610cdc929190611773565b6040516020818303038152906040529392505050565b6103e182826040518060200160405280600081525061119a565b6000828152600260205260409020546001600160a01b0316610d705760405162461bcd60e51b815260206004820152601c60248201527f55524920736574206f66206e6f6e6578697374656e7420746f6b656e00000000604482015260640161040b565b6000828152600c602052604090206104f58282611872565b8080610d9c57506001600160a01b03821615155b15610e5e576000610dac84610905565b90506001600160a01b03831615801590610dd85750826001600160a01b0316816001600160a01b031614155b8015610deb5750610de9818461080d565b155b15610e145760405163a9fbf51f60e01b81526001600160a01b038416600482015260240161040b565b8115610e5c5783856001600160a01b0316826001600160a01b03167f8c5be1e5ebec7d5bd14f71427d1e84f3dd0314c0f7b2291e5b200ac8c7c3b92560405160405180910390a45b505b5050600090815260046020526040902080546001600160a01b0319166001600160a01b0392909216919091179055565b6000828152600260205260408120546001600160a01b0390811690831615610ebb57610ebb8184866111b2565b6001600160a01b03811615610ef957610ed8600085600080610d88565b6001600160a01b038116600090815260036020526040902080546000190190555b6001600160a01b03851615610f28576001600160a01b0385166000908152600360205260409020805460010190555b60008481526002602052604080822080546001600160a01b0319166001600160a01b0389811691821790925591518793918516917fddf252ad1be2c89b69c2b068fc378daa952ba7f163c4a11628f55a4df523b3ef91a4949350505050565b6000610f928361055e565b6000838152600760209081526040808320546001600160a01b0388168452600690925290912091925090818314610fe957600083815260208281526040808320548584528184208190558352600790915290208290555b6000938452600760209081526040808620869055938552525081205550565b60085460009061101a90600190611931565b600083815260096020526040812054600880549394509092849081106110425761104261175d565b9060005260206000200154905080600883815481106110635761106361175d565b600091825260208083209091019290925582815260099091526040808220849055858252812055600880548061109b5761109b611944565b6001900381819060005260206000200160009055905550505050565b600060016110c48461055e565b6110ce9190611931565b6001600160a01b039093166000908152600660209081526040808320868452825280832085905593825260079052919091209190915550565b6060600061111483611216565b600101905060008167ffffffffffffffff81111561113457611134611582565b6040519080825280601f01601f19166020018201604052801561115e576020820181803683370190505b5090508181016020015b600019016f181899199a1a9b1b9c1cb0b131b232b360811b600a86061a8153600a850494508461116857509392505050565b6111a483836112ee565b6104f5336000858585610b36565b6111bd838383611353565b6104f5576001600160a01b0383166111eb57604051637e27328960e01b81526004810182905260240161040b565b60405163177e802f60e01b81526001600160a01b03831660048201526024810182905260440161040b565b60008072184f03e93ff9f4daa797ed6e38ed64bf6a1f0160401b83106112555772184f03e93ff9f4daa797ed6e38ed64bf6a1f0160401b830492506040015b6d04ee2d6d415b85acef81000000008310611281576d04ee2d6d415b85acef8100000000830492506020015b662386f26fc10000831061129f57662386f26fc10000830492506010015b6305f5e10083106112b7576305f5e100830492506008015b61271083106112cb57612710830492506004015b606483106112dd576064830492506002015b600a83106103155760010192915050565b6001600160a01b03821661131857604051633250574960e11b81526000600482015260240161040b565b60006113268383600061094b565b90506001600160a01b038116156104f5576040516339e3563760e11b81526000600482015260240161040b565b60006001600160a01b038316158015906108055750826001600160a01b0316846001600160a01b0316148061138d575061138d848461080d565b806108055750506000908152600460205260409020546001600160a01b03908116911614919050565b6001600160e01b0319811681146108b257600080fd5b6000602082840312156113de57600080fd5b8135610870816113b6565b60005b838110156114045781810151838201526020016113ec565b50506000910152565b600081518084526114258160208601602086016113e9565b601f01601f19169290920160200192915050565b602081526000610870602083018461140d565b60006020828403121561145e57600080fd5b5035919050565b80356001600160a01b038116811461147c57600080fd5b919050565b6000806040838503121561149457600080fd5b61149d83611465565b946020939093013593505050565b6000806000606084860312156114c057600080fd5b6114c984611465565b92506114d760208501611465565b929592945050506040919091013590565b6000602082840312156114fa57600080fd5b61087082611465565b602080825282518282018190526000918401906040840190835b8181101561153b57835183526020938401939092019160010161151d565b509095945050505050565b6000806040838503121561155957600080fd5b61156283611465565b91506020830135801515811461157757600080fd5b809150509250929050565b634e487b7160e01b600052604160045260246000fd5b60008067ffffffffffffffff8411156115b3576115b3611582565b50604051601f19601f85018116603f0116810181811067ffffffffffffffff821117156115e2576115e2611582565b6040528381529050808284018510156115fa57600080fd5b83836020830137600060208583010152509392505050565b6000806000806080858703121561162857600080fd5b61163185611465565b935061163f60208601611465565b925060408501359150606085013567ffffffffffffffff81111561166257600080fd5b8501601f8101871361167357600080fd5b61168287823560208401611598565b91505092959194509250565b600080604083850312156116a157600080fd5b6116aa83611465565b91506116b860208401611465565b90509250929050565b600080604083850312156116d457600080fd5b6116dd83611465565b9150602083013567ffffffffffffffff8111156116f957600080fd5b8301601f8101851361170a57600080fd5b61171985823560208401611598565b9150509250929050565b600181811c9082168061173757607f821691505b60208210810361175757634e487b7160e01b600052602260045260246000fd5b50919050565b634e487b7160e01b600052603260045260246000fd5b600083516117858184602088016113e9565b8351908301906117998183602088016113e9565b01949350505050565b634e487b7160e01b600052601160045260246000fd5b6000600182016117ca576117ca6117a2565b5060010190565b6001600160a01b03858116825284166020820152604081018390526080606082018190526000906118049083018461140d565b9695505050505050565b60006020828403121561182057600080fd5b8151610870816113b6565b601f8211156104f557806000526020600020601f840160051c810160208510156118525750805b601f840160051c820191505b81811015610c5a576000815560010161185e565b815167ffffffffffffffff81111561188c5761188c611582565b6118a08161189a8454611723565b8461182b565b6020601f8211600181146118d457600083156118bc5750848201515b600019600385901b1c1916600184901b178455610c5a565b600084815260208120601f198516915b8281101561190457878501518255602094850194600190920191016118e4565b50848210156119225786840151600019600387901b60f8161c191681555b50505050600190811b01905550565b81810381811115610315576103156117a2565b634e487b7160e01b600052603160045260246000fdfea264697066735822122057dde13186de81a6717782ba209b616b34d8fa33a280873d198e9de05650a63a64736f6c634300081e0033",
  "linkReferences": {},
  "deployedLinkReferences": {}
}