{
  "_format": "hh-sol-artifact-1",
  "contractName": "DiploToken",
  "sourceName": "contracts/DiploToken.sol",
  "abi": [
    {
      "inputs": [
        {
          "internalType": "address",
          "name": "initialOwner",
          "type": "address"
        }
      ],
      "stateMutability": "nonpayable",
      "type": "constructor"
    },
    {
      "inputs": [
        {
          "internalType": "address",
          "name": "spender",
          "type": "address"
        },
        {
          "internalType": "uint256",
          "name": "allowance",
          "type": "uint256"
        },
        {
          "internalType": "uint256",
          "name": "needed",
          "type": "uint256"
        }
      ],
      "name": "ERC20InsufficientAllowance",
      "type": "error"
    },
    {
      "inputs": [
        {
          "internalType": "address",
          "name": "sender",
          "type": "address"
        },
        {
          "internalType": "uint256",
          "name": "balance",
          "type": "uint256"
        },
        {
          "internalType": "uint256",
          "name": "needed",
          "type": "uint256"
        }
      ],
      "name": "ERC20InsufficientBalance",
      "type": "error"
    },
    {
      "inputs": [
        {
          "internalType": "address",
          "name": "approver",
          "type": "address"
        }
      ],
      "name": "ERC20InvalidApprover",
      "type": "error"
    },
    {
      "inputs": [
        {
          "internalType": "address",
          "name": "receiver",
          "type": "address"
        }
      ],
      "name": "ERC20InvalidReceiver",
      "type": "error"
    },
    {
      "inputs": [
        {
          "internalType": "address",
          "name": "sender",
          "type": "address"
        }
      ],
      "name": "ERC20InvalidSender",
      "type": "error"
    },
    {
      "inputs": [
        {
          "internalType": "address",
          "name": "spender",
          "type": "address"
        }
      ],
      "name": "ERC20InvalidSpender",
      "type": "error"
    },
    {
      "inputs": [
        {
          "internalType": "address",
          "name": "owner",
          "type": "address"
        }
      ],
      "name": "OwnableInvalidOwner",
      "type": "error"
    },
    {
      "inputs": [
        {
          "internalType": "address",
          "name": "account",
          "type": "address"
        }
      ],
      "name": "OwnableUnauthorizedAccount",
      "type": "error"
    },
    {
      "anonymous": false,
      "inputs": [
        {
          "indexed": true,
          "internalType": "address",
          "name": "owner",
          "type": "address"
        },
        {
          "indexed": true,
          "internalType": "address",
          "name": "spender",
          "type": "address"
        },
        {
          "indexed": false,
          "internalType": "uint256",
          "name": "value",
          "type": "uint256"
        }
      ],
      "name": "Approval",
      "type": "event"
    },
    {
      "anonymous": false,
      "inputs": [
        {
          "indexed": true,
          "internalType": "address",
          "name": "previousOwner",
          "type": "address"
        },
        {
          "indexed": true,
          "internalType": "address",
          "name": "newOwner",
          "type": "address"
        }
      ],
      "name": "OwnershipTransferred",
      "type": "event"
    },
    {
      "anonymous": false,
      "inputs": [
        {
          "indexed": true,
          "internalType": "address",
          "name": "from",
          "type": "address"
        },
        {
          "indexed": true,
          "internalType": "address",
          "name": "to",
          "type": "address"
        },
        {
          "indexed": false,
          "internalType": "uint256",
          "name": "value",
          "type": "uint256"
        }
      ],
      "name": "Transfer",
      "type": "event"
    },
    {
      "inputs": [],
      "name": "INITIAL_SUPPLY",
      "outputs": [
        {
          "internalType": "uint256",
          "name": "",
          "type": "uint256"
        }
      ],
      "stateMutability": "view",
      "type": "function"
    },
    {
      "inputs": [
        {
          "internalType": "address",
          "name": "owner",
          "type": "address"
        },
        {
          "internalType": "address",
          "name": "spender",
          "type": "address"
        }
      ],
      "name": "allowance",
      "outputs": [
        {
          "internalType": "uint256",
          "name": "",
          "type": "uint256"
        }
      ],
      "stateMutability": "view",
      "type": "function"
    },
    {
      "inputs": [
        {
          "internalType": "address",
          "name": "spender",
          "type": "address"
        },
        {
          "internalType": "uint256",
          "name": "value",
          "type": "uint256"
        }
      ],
      "name": "approve",
      "outputs": [
        {
          "internalType": "bool",
          "name": "",
          "type": "bool"
        }
      ],
      "stateMutability": "nonpayable",
      "type": "function"
    },
    {
      "inputs": [
        {
          "internalType": "address",
          "name": "account",
          "type": "address"
        }
      ],
      "name": "balanceOf",
      "outputs": [
        {
          "internalType": "uint256",
          "name": "",
          "type": "uint256"
        }
      ],
      "stateMutability": "view",
      "type": "function"
    },
    {
      "inputs": [
        {
          "internalType": "uint256",
          "name": "amount",
          "type": "uint256"
        }
      ],
      "name": "burn",
      "outputs": [],
      "stateMutability": "nonpayable",
      "type": "function"
    },
    {
      "inputs": [
        {
          "internalType": "address",
          "name": "from",
          "type": "address"
        },
        {
          "internalType": "uint256",
          "name": "amount",
          "type": "uint256"
        }
      ],
      "name": "burnFrom",
      "outputs": [],
      "stateMutability": "nonpayable",
      "type": "function"
    },
    {
      "inputs": [],
      "name": "decimals",
      "outputs": [
        {
          "internalType": "uint8",
          "name": "",
          "type": "uint8"
        }
      ],
      "stateMutability": "pure",
      "type": "function"
    },
    {
      "inputs": [
        {
          "internalType": "address",
          "name": "to",
          "type": "address"
        },
        {
          "internalType": "uint256",
          "name": "amount",
          "type": "uint256"
        }
      ],
      "name": "mint",
      "outputs": [],
      "stateMutability": "nonpayable",
      "type": "function"
    },
    {
      "inputs": [],
      "name": "name",
      "outputs": [
        {
          "internalType": "string",
          "name": "",
          "type": "string"
        }
      ],
      "stateMutability": "view",
      "type": "function"
    },
    {
      "inputs": [],
      "name": "owner",
      "outputs": [
        {
          "internalType": "address",
          "name": "",
          "type": "address"
        }
      ],
      "stateMutability": "view",
      "type": "function"
    },
    {
      "inputs": [],
      "name": "renounceOwnership",
      "outputs": [],
      "stateMutability": "nonpayable",
      "type": "function"
    },
    {
      "inputs": [],
      "name": "symbol",
      "outputs": [
        {
          "internalType": "string",
          "name": "",
          "type": "string"
        }
      ],
      "stateMutability": "view",
      "type": "function"
    },
    {
      "inputs": [],
      "name": "totalSupply",
      "outputs": [
        {
          "internalType": "uint256",
          "name": "",
          "type": "uint256"
        }
      ],
      "stateMutability": "view",
      "type": "function"
    },
    {
      "inputs": [
        {
          "internalType": "address",
          "name": "to",
          "type": "address"
        },
        {
          "internalType": "uint256",
          "name": "value",
          "type": "uint256"
        }
      ],
      "name": "transfer",
      "outputs": [
        {
          "internalType": "bool",
          "name": "",
          "type": "bool"
        }
      ],
      "stateMutability": "nonpayable",
      "type": "function"
    },
    {
      "inputs": [
        {
          "internalType": "address",
          "name": "from",
          "type": "address"
        },
        {
          "internalType": "address",
          "name": "to",
          "type": "address"
        },
        {
          "internalType": "uint256",
          "name": "value",
          "type": "uint256"
        }
      ],
      "name": "transferFrom",
      "outputs": [
        {
          "internalType": "bool",
          "name": "",
          "type": "bool"
        }
      ],
      "stateMutability": "nonpayable",
      "type": "function"
    },
    {
      "inputs": [
        {
          "internalType": "address",
          "name": "newOwner",
          "type": "address"
        }
      ],
      "name": "transferOwnership",
      "outputs": [],
      "stateMutability": "nonpayable",
      "type": "function"
    }
  ],
  "bytecode": "0x608060405234801561001057600080fd5b50604051610df1380380610df183398101604081905261002f91610292565b80604051806040016040528060058152602001644469706c6f60d81b8152506040518060400160405280600381526020016204449560ec1b81525081600390816100799190610361565b5060046100868282610361565b5050506001600160a01b0381166100b857604051631e4fbdf760e01b8152600060048201526024015b60405180910390fd5b6100c1816100dc565b506100d68169d3c21bcecceda100000061012e565b50610446565b600580546001600160a01b038381166001600160a01b0319831681179093556040519116919082907f8be0079c531659141344cd1fd0a4f28419497f9722a3daafe3b4186f6b6457e090600090a35050565b6001600160a01b0382166101585760405163ec442f0560e01b8152600060048201526024016100af565b61016460008383610168565b5050565b6001600160a01b038316610193578060026000828254610188919061041f565b909155506102059050565b6001600160a01b038316600090815260208190526040902054818110156101e65760405163391434e360e21b81526001600160a01b038516600482015260248101829052604481018390526064016100af565b6001600160a01b03841660009081526020819052604090209082900390555b6001600160a01b03821661022157600280548290039055610240565b6001600160a01b03821660009081526020819052604090208054820190555b816001600160a01b0316836001600160a01b03167fddf252ad1be2c89b69c2b068fc378daa952ba7f163c4a11628f55a4df523b3ef8360405161028591815260200190565b60405180910390a3505050565b6000602082840312156102a457600080fd5b81516001600160a01b03811681146102bb57600080fd5b9392505050565b634e487b7160e01b600052604160045260246000fd5b600181811c908216806102ec57607f821691505b60208210810361030c57634e487b7160e01b600052602260045260246000fd5b50919050565b601f82111561035c57806000526020600020601f840160051c810160208510156103395750805b601f840160051c820191505b818110156103595760008155600101610345565b50505b505050565b81516001600160401b0381111561037a5761037a6102c2565b61038e8161038884546102d8565b84610312565b6020601f8211600181146103c257600083156103aa5750848201515b600019600385901b1c1916600184901b178455610359565b600084815260208120601f198516915b828110156103f257878501518255602094850194600190920191016103d2565b50848210156104105786840151600019600387901b60f8161c191681555b50505050600190811b01905550565b8082018082111561044057634e487b7160e01b600052601160045260246000fd5b92915050565b61099c806104556000396000f3fe608060405234801561001057600080fd5b50600436106101005760003560e01c806370a082311161009757806395d89b411161006657806395d89b4114610212578063a9059cbb1461021a578063dd62ed3e1461022d578063f2fde38b1461026657600080fd5b806370a08231146101b3578063715018a6146101dc57806379cc6790146101e45780638da5cb5b146101f757600080fd5b80632ff2e9dc116100d35780632ff2e9dc1461016b578063313ce5671461017c57806340c10f191461018b57806342966c68146101a057600080fd5b806306fdde0314610105578063095ea7b31461012357806318160ddd1461014657806323b872dd14610158575b600080fd5b61010d610279565b60405161011a91906107cc565b60405180910390f35b610136610131366004610836565b61030b565b604051901515815260200161011a565b6002545b60405190815260200161011a565b610136610166366004610860565b610325565b61014a69d3c21bcecceda100000081565b6040516012815260200161011a565b61019e610199366004610836565b610349565b005b61019e6101ae36600461089d565b61035f565b61014a6101c13660046108b6565b6001600160a01b031660009081526020819052604090205490565b61019e61036c565b61019e6101f2366004610836565b610380565b6005546040516001600160a01b03909116815260200161011a565b61010d610395565b610136610228366004610836565b6103a4565b61014a61023b3660046108d8565b6001600160a01b03918216600090815260016020908152604080832093909416825291909152205490565b61019e6102743660046108b6565b6103b2565b6060600380546102889061090b565b80601f01602080910402602001604051908101604052809291908181526020018280546102b49061090b565b80156103015780601f106102d657610100808354040283529160200191610301565b820191906000526020600020905b8154815290600101906020018083116102e457829003601f168201915b5050505050905090565b6000336103198185856103f2565b60019150505b92915050565b600033610333858285610404565b61033e858585610483565b506001949350505050565b6103516104e2565b61035b828261050f565b5050565b6103693382610545565b50565b6103746104e2565b61037e600061057b565b565b61038b823383610404565b61035b8282610545565b6060600480546102889061090b565b600033610319818585610483565b6103ba6104e2565b6001600160a01b0381166103e957604051631e4fbdf760e01b8152600060048201526024015b60405180910390fd5b6103698161057b565b6103ff83838360016105cd565b505050565b6001600160a01b0383811660009081526001602090815260408083209386168352929052205460001981101561047d578181101561046e57604051637dc7a0d960e11b81526001600160a01b038416600482015260248101829052604481018390526064016103e0565b61047d848484840360006105cd565b50505050565b6001600160a01b0383166104ad57604051634b637e8f60e11b8152600060048201526024016103e0565b6001600160a01b0382166104d75760405163ec442f0560e01b8152600060048201526024016103e0565b6103ff8383836106a2565b6005546001600160a01b0316331461037e5760405163118cdaa760e01b81523360048201526024016103e0565b6001600160a01b0382166105395760405163ec442f0560e01b8152600060048201526024016103e0565b61035b600083836106a2565b6001600160a01b03821661056f57604051634b637e8f60e11b8152600060048201526024016103e0565b61035b826000836106a2565b600580546001600160a01b038381166001600160a01b0319831681179093556040519116919082907f8be0079c531659141344cd1fd0a4f28419497f9722a3daafe3b4186f6b6457e090600090a35050565b6001600160a01b0384166105f75760405163e602df0560e01b8152600060048201526024016103e0565b6001600160a01b03831661062157604051634a1406b160e11b8152600060048201526024016103e0565b6001600160a01b038085166000908152600160209081526040808320938716835292905220829055801561047d57826001600160a01b0316846001600160a01b03167f8c5be1e5ebec7d5bd14f71427d1e84f3dd0314c0f7b2291e5b200ac8c7c3b9258460405161069491815260200190565b60405180910390a350505050565b6001600160a01b0383166106cd5780600260008282546106c29190610945565b9091555061073f9050565b6001600160a01b038316600090815260208190526040902054818110156107205760405163391434e360e21b81526001600160a01b038516600482015260248101829052604481018390526064016103e0565b6001600160a01b03841660009081526020819052604090209082900390555b6001600160a01b03821661075b5760028054829003905561077a565b6001600160a01b03821660009081526020819052604090208054820190555b816001600160a01b0316836001600160a01b03167fddf252ad1be2c89b69c2b068fc378daa952ba7f163c4a11628f55a4df523b3ef836040516107bf91815260200190565b60405180910390a3505050565b602081526000825180602084015260005b818110156107fa57602081860181015160408684010152016107dd565b506000604082850101526040601f19601f83011684010191505092915050565b80356001600160a01b038116811461083157600080fd5b919050565b6000806040838503121561084957600080fd5b6108528361081a565b946020939093013593505050565b60008060006060848603121561087557600080fd5b61087e8461081a565b925061088c6020850161081a565b929592945050506040919091013590565b6000602082840312156108af57600080fd5b5035919050565b6000602082840312156108c857600080fd5b6108d18261081a565b9392505050565b600080604083850312156108eb57600080fd5b6108f48361081a565b91506109026020840161081a565b90509250929050565b600181811c9082168061091f57607f821691505b60208210810361093f57634e487b7160e01b600052602260045260246000fd5b50919050565b8082018082111561031f57634e487b7160e01b600052601160045260246000fdfea264697066735822122026846530197c12ceda30e6e58b0d51c2e5d0a49cf392f4a7576fba0a2cee57e164736f6c634300081e0033",
  "linkReferences": {},
  "deployedLinkReferences": {}
}